{
  "contractName": "TodoList",
  "abi": [
    {
      "constant": true,
      "inputs": [],
      "name": "brojZadataka",
      "outputs": [
        {
          "name": "",
          "type": "uint256"
        }
      ],
      "payable": false,
      "stateMutability": "view",
      "type": "function",
      "signature": "0x02f1c680"
    }
  ],
  "bytecode": "0x608060405260008055348015601357600080fd5b50609e806100226000396000f3fe608060405260043610603f576000357c0100000000000000000000000000000000000000000000000000000000900463ffffffff16806302f1c680146044575b600080fd5b348015604f57600080fd5b506056606c565b6040518082815260200191505060405180910390f35b6000548156fea165627a7a723058204be0fd1f4516a8d2447b332dcf14e957b16e7795224699b17f261aa2bf00934b0029",
  "source": "pragma solidity  >=0.4.22 <0.9.0;\r\n\r\n\r\ncontract TodoList{\r\n\r\n    uint public brojZadataka  = 0;\r\n\r\n    // struct Zadatak{\r\n    //     uint id;\r\n    //     string tekst;\r\n    //     bool zavrsen;\r\n    // }\r\n\r\n    // constructor ()  {\r\n\r\n    // }\r\n\r\n\r\n\r\n    // function kreirajZadatak(string memory _tekst) public {\r\n\r\n    // }\r\n\r\n}",
  "sourcePath": "D:/projects/eth-sol-todo/contracts/TodoList.sol",
  "compiler": {
    "name": "solc",
    "version": "0.5.0+commit.1d4f565a.Emscripten.clang"
  },
  "schemaVersion": "3.0.1",
  "updatedAt": "2022-01-17T15:16:59.739Z",
  "devdoc": {
    "methods": {}
  },
  "userdoc": {
    "methods": {}
  }
}